:02000004080AE8
:1000000000000A08D81F0A080000060006000501C3
:0800100004027E05000000005F
:040018004C1C0A086A
:10001C0009480A4908B5884205D0094A824202D0EB
:10002C00121A01F0C9FD0748074A0021121A01F003
:10003C00CEFD064808BD00BF00000020441F0A0882
:10004C006C0000206C000020100600201006002020
:10005C0070B500F08DFC074B074C1E46E41AA40843
:10006C000025A54204D056F8253098470135F8E70D
:10007C0070BD00BF081F0A08401F0A0800F012B824
:10008C0008B500F06BF8BDE8084000F033BC00F098
:10009C00A1BA0078B0FA80F04009704701230370D0
:1000AC007047000007B51021114800F0D6F800F099
:1000BC005FFD4FF4614100F041FD00F059FD0D4929
:1000CC0000F06BFB0022B4238DE80C0003214FF4ED
:1000DC0016634FF40872084800F0F3FA642000F03D
:1000EC00B7FB00F0ABFF03B05DF804EB00F062BEB1
:1000FC0080000020601C0A087000002038B50446FF
:10010C0000F09CFF2146022200F063FE084D002403
:10011C0000F094FF03681B69984738B100F08EFF1C
:10012C0003685B69984728550134F1E7204638BDD0
:10013C008100002010B5044600F080FF214600F03D
:10014C0051FE00F07BFF036810219B68984700F07C
:10015C0075FFBDE8104000F04CBE000038B51C4BDC
:10016C001A681C46172A30DC1A4D2868FFF7E2FF84
:10017C002868FFF7C3FF022804D100F0F9FC1649E8
:10018C0000F00BFB154B18785B7843EA002001F06C
:10019C0017FA4FF03332124B01F0A2FB0022114B35
:1001AC0001F0C0F80022104B01F070FA00220F4B46
:1001BC0001F096FB01F07CFC01F0CAFC9F28014683
:1001CC00A8BF9F210A4800F03DFA0023236038BDE8
:1001DC0084000020000000206D1C0A088100002013
:1001EC003333F33F000014400000644000408F4064
:1001FC007000002008B500F03FF8044800F04DFAFC
:10020C00BDE80840024800F005B800BF70000020AF
:10021C00800000207047A1F11003DBB2132B10B546
:10022C000C4619D8012202FA03F313F00B1F13D05A
:10023C0000F004FF232100F0D5FD00F0FFFE036861
:10024C0021469B68984700F0F9FE00F0D2FDBDE80E
:10025C0010400A2000F0FCBA10BD38B50D4604461B
:10026C0000F0ECFE00F0A6FD29462046BDE8384023
:10027C00FFF7D1BF00F000B808B5024B1B681B6834
:10028C00019308BDB001060808B5024B1B685B68FA
:10029C00019308BDB001060808B5024B1B68DB6969
:1002AC00019308BDB401060808B5024B1B681B6A14
:1002BC00019308BDB401060808B5024B1B685B68C6
:1002CC00019308BD9C01060808B5024B1B685B69CD
:1002DC00019308BD9C01060808B5024B1B681B6BFB
:1002EC00019308BDD001060808B5024B1B689B6939
:1002FC00019308BDC401060808B5024B1B685B6A74
:10030C00019308BDC401060808B5024B1B689B6A23
:10031C00019308BDC401060808B5024B1B68DB6AD3
:10032C00019308BDC401060808B5024B1B681B6B82
:10033C00019308BDC401060808B5024B1B685B6B32
:10034C00019308BDC401060808B5024B1B689B6BE2
:10035C00019308BDC401060808B5024B1B681B6C51
:10036C00019308BDC401060808B5024B1B68DB6C81
:10037C00019308BDAC01060808B5024B1B685B6D08
:10038C00019308BDAC01060808B5024B1B689B6DB8
:10039C00019308BDAC01060808B5024B1B68DB6D68
:1003AC00019308BDAC01060808B5024B1B681B6E17
:1003BC00019308BDAC01060808B5024B1B685B6EC7
:1003CC00019308BDAC01060808B5024B1B689B6E77
:1003DC00019308BDAC01060808B5024B1B68DB6E27
:1003EC00019308BDAC01060808B5024B1B681B6FD6
:1003FC00019308BDAC01060808B5024B1B685B6F86
:10040C00019308BDAC01060808B5034B1B68D3F873
:10041C008030019308BD0000AC01060808B5024B02
:10042C001B681B69019308BDA801060808B5024B9F
:10043C001B685B69019308BDA801060808B5024B4F
:10044C001B689B69019308BDA801060808B5024BFF
:10045C001B681B68019308BDD801060808B5024B40
:10046C001B685B68019308BDD801060808B5024BF0
:10047C001B681B69019308BDD801060808B5024B1F
:10048C001B685B69019308BDD801060808B5024BCF
:10049C001B689B69019308BDD801060808B5024B7F
:1004AC001B68DB69019308BDD801060808B5024B2F
:1004BC001B681B6A019308BDD801060808B5024BDE
:1004CC001B689B6C019308BDC001060808B5024B64
:1004DC001B685B68019308BDA401060808B5024BB4
:1004EC001B685B69019308BDA401060808B5034BA2
:1004FC001B68D3F89030019308BD0000A4010608D6
:10050C0008B5034B1B68D3F89C30019308BD000061
:10051C00A401060808B5024B1B685B68019308BD73
:10052C00C801060808B5024B1B689B68019308BDFF
:10053C00C801060808B5024B1B68DB68019308BDAF
:10054C00C801060808B5024B1B681B69019308BD5E
:10055C00C801060808B5024B1B685B69019308BD0E
:10056C00C801060808B5024B1B689B69019308BDBE
:10057C00C801060808B5024B1B68DB69019308BD6E
:10058C00C801060808B5024B1B681B6A019308BD1D
:10059C00C801060808B5024B1B681B6B019308BD0C
:1005AC00C801060808B5024B1B685B6B019308BDBC
:1005BC00C801060808B5024B1B68DB6B019308BD2C
:1005CC00CC01060808B5024B1B681B68019308BDDB
:1005DC00A001060808B5024B1B685B68019308BDB7
:1005EC00A0010608704710B50446102100F04BFD21
:1005FC00204610BD70B504460E46074B002503601F
:10060C0040F80C5FFFF768FE30462671FFF744FE9A
:10061C00A560204670BD00BF881C0A080079FFF752
:10062C0043BEB0F90020531C0BD0438880888B420A
:10063C0003D88842034628BF0B46194690B2FFF7F1
:10064C00FDBE704737B504460846B4F90610B4F938
:10065C000820814203DC9042A8BF104600E0084607
:10066C00A5886388009500F0E7F8E168014420460E
:10067C0089B203B0BDE83040FFF7D3BF4FF6FF732C
:10068C00B42202814FF408720380428000234FF49D
:10069C001662C3808280C360704708B5FFF7EEFF17
:1006AC0008BD10B50446B0F90000431C07D080B259
:1006BC00FFF7BCFE2046FFF7E1FF012010BD002034
:1006CC0010BD2DE9F0410D46044602212846904606
:1006DC001F46FFF7D9FD022801D0002619E0284655
:1006EC0000F04EFC06460028F7D0B4F90030013378
:1006FC0002D02046FFF7D5FFBDF918302580E380E6
:10070C00BDF91C30A4F80280A78023812846FFF78E
:10071C0085FE3046BDE8F0814FF6FF72034B00209A
:10072C00187058809A80FFF7D1BE00BF8800002057
:10073C00F8B506460D468F180024BD420CD0336820
:10074C0015F8011B9B6830469847002801DB0444D0
:10075C00F3E7002C08BF04462046F8BD70B50546EB
:10076C000C46084649B101F063FA2B680246214653
:10077C002846BDE87040DB68184770BD03689B686D
:10078C00184738B50D210546FFF7F8FF0A21044636
:10079C002846FFF7F3FF204438BD38B50546FFF770
:1007AC00DDFF04462846FFF7ECFF204438BD012A44
:1007BC0098BF0A2230B50B468BB000218DF824105F
:1007CC000DF12304B3FBF2F505FB1233DBB2092B5D
:1007DC0094BF30333733DBB2214604F801392B4652
:1007EC00002DEFD1FFF7BAFF0BB030BD10B422B91A
:1007FC000368C9B29B6810BC1847D2B210BCFFF793
:10080C00D6BFFFF7F3BF00231A4619464068FFF71F
:10081C00A1BE0000014A024B1A607047061D0A086F
:10082C0090000020024B1A68024B1A60704700BF00
:10083C0004000020940000208A4230B507D0039DAC
:10084C00441AED1A6C43521A94FBF2F4E01830BDC2
:10085C000021FFF743BE10B58368044613B1032291
:10086C0001469847204610BD10B50446FFF7F3FF2C
:10087C00204610BD034800238360034A034900F05F
:10088C00FDBB00BF980000206C00002075080A0812
:10089C0008B5144B33B100F06BF903681B6998472A
:1008AC00002816DC104B33B100F020FA03681B69EA
:1008BC009847002810DC0D4B0BB1AFF300800C4BAC
:1008CC007BB100F091F903681B699847002806DC9E
:1008DC0008BDAFF30080E5E7AFF30080EBE7AFF3C3
:1008EC00008008BD000000000000000000000000B7
:1008FC000000000008B5FFF7CBFFFFF7E5FC014B4C
:10090C00186008BD3C0500200248034A0349121A2E
:10091C0001F052B90040024004400240401F0A0856
:10092C0007B5002300931A466FF07701FFF7E8FD37
:10093C0003B05DF804FB000007B543880A2B08D010
:10094C00502B09D1094B1B683BB103B05DF804EB8C
:10095C001847FFF7E5FF06E0002300931A466FF0F7
:10096C007701FFF7CDFD03B05DF804FBA800002074
:10097C0038B5104C104D2368AB42104B0CBF012204
:10098C0000221A7002D0FFF7BFFF2560FFF794FC1E
:10099C00044601F025F90A4B13B12046AFF3008051
:1009AC0000210748FFF706FEBDE838400021054846
:1009BC00FFF79CBD004002401E1C279AAC00002093
:1009CC000000000045090A08704710B504461821BC
:1009DC0000F059FB204610BDF8B50F4600F1080693
:1009EC00051D002416F8011D0A223846FFF709FFE1
:1009FC00AE42044407D0002CF4D02E213846FFF729
:100A0C00BDFE0444EEE72046F8BD000010B50446D8
:100A1C00044B112240F8043B002101F0D8F8204689
:100A2C0010BD00BFA81D0A080346074A10B543F8BD
:100A3C00042B01F1100251F8044B914243F8044B82
:100A4C00F9D10A781A7010BDA81D0A08024A416033
:100A5C000260042202757047A81D0A0810B59DF8A3
:100A6C00084044EA032343EA024242EA01610423B8
:100A7C004160037510BD000037B5044D05609DF84D
:100A8C0018500095FFF7EAFF03B030BDA81D0A0807
:100A9C0041747047704708B50021007CFFF7F6FCE5
:100AAC0030EA200028BF4FF0FF3008BD08B5012107
:100ABC00007CFFF7EBFC30EA200028BF4FF0FF3042
:100ACC0008BD08B5007CFFF7D9FC20EAE07008BD32
:100ADC0008B5007CFFF7CAFC20EAE07008BD007C7A
:100AEC00FFF7E4BC10B50446142100F0CCFA204604
:100AFC0010BD38B50446007C0D46FFF7BFFC00283E
:100B0C0001DC607C28B12946207CFFF7C7FC20EA79
:100B1C00E07038BD10B50446002363604FF47A735F
:100B2C00A360054B084623600123217463741146AE
:100B3C00FFF78CFC204610BDBC1D0A080022007C6F
:100B4C00FFF78CBC10B504461422002101F03FF8CD
:100B5C00054B20466360054BE36040F20113238193
:100B6C008123238210BD00BF35010020B40000207A
:100B7C0030B50E4D87B001A8FFF7E4FF296811F0DE
:100B8C00010410D12846FFF784FA60B101AA21466E
:100B9C000748FFF7BFFF2846FFF780FA054A0649CA
:100BAC00034800F06BFA024807B030BDB0000020DB
:100BBC00380200206C000020A10A0A0810B5044677
:100BCC001422002101F003F8054B20466360054B0D
:100BDC00E36040F2011323818123238210BD00BF07
:100BEC00E80200205002002010B50E4C86B001A87F
:100BFC00FFF7E4FF2368DB0710D42046FFF749FA20
:100C0C0060B101AA01210848FFF784FF2046FFF7D5
:100C1C0045FA064A0649044800F030FA024806B084
:100C2C0010BD00BF4C020020D40200206C0000203C
:100C3C00A10A0A0870474174704708B5007CFFF799
:100C4C008BFB20EAE07008BD08B5007CFFF75CFB6D
:100C5C0020EAE07008BD08B5007CFFF765FB30EAC0
:100C6C00200028BF4FF0FF3008BD08B5007CFFF70F
:100C7C0053FB30EA200028BF4FF0FF3008BD007C4A
:100C8C00FFF75ABB10B50446142100F0FCF92046BE
:100C9C0010BD70B5457C04460E4625B9007CFFF7A7
:100CAC005BFB002805DD3146207CBDE87040FFF77A
:100CBC0023BB284670BD000010B5044608461146FB
:100CCC00002262604FF47A72A260054A207422609E
:100CDC00012262741A46FFF707FB204610BD00BFC5
:100CEC00EC1D0A08007CFFF72FBB000038B50C4D3B
:100CFC00296811F0010411D12846FFF7CAF968B12F
:100D0C00084A2146084B0948FFF7D6FF2846FFF74B
:100D1C00C5F9074A0749054800F0B0F9034838BD42
:100D2C00840400208804002000040020EC03002030
:100D3C006C000020410C0A087047F8B506461546B1
:100D4C000C468F18BC4206D0336814F8011B9B6804
:100D5C0030469847F6E72846F8BD0022007CFFF79E
:100D6C0023BB0021007CFFF727BB0021007CFFF791
:100D7C002BBB0021007CFFF72FBB0021007CFFF771
:100D8C0033BB10B50446142100F07DF9204610BD8C
:100D9C0010B5044608464FF47A73A360044B002147
:100DAC00207461602360FFF72FFB204610BD00BF4D
:100DBC001C1E0A0800231A461946007CFFF7D4BAF9
:100DCC0013B50024007C0094FFF7D6FAC0B202B031
:100DDC0010BD0123D2B2C9B2FFF7F2BF0022007CD2
:100DEC00FFF7D2BAC9B2FFF7F9BF0022007CFFF7B8
:100DFC00D3BA0121FFF7F9BF0021007CFFF7FCBA41
:100E0C00002211464068FFF79DBBF0B5164689B02D
:100E1C0011220F460446002103A800F0D8FE3046EC
:100E2C0000F006FF0025009581B27B6803AA3046CE
:100E3C00FFF744FB20B129462046FFF707FE03E0ED
:100E4C0003A92046FFF7F0FD204609B0F0BD0022B3
:100E5C0011464068FFF796BB002211464068FFF729
:100E6C00A1BB00224068FFF795BB002281F0010175
:100E7C004068FFF77FBB00231A4619464068FFF70E
:100E8C0071BB002211464068FFF74CBB00220221C7
:100E9C004068FFF74FBB00231A464068FFF73ABB88
:100EAC00024B04225A60024A1A6070470C0500205B
:100EBC00441E0A0800231A464068FFF72BBB002289
:100ECC0002214068FFF736BB002211464068FFF74D
:100EDC0029BB002211464068FFF734BB00231A4699
:100EEC0019464068FFF736BB00231A46194640687E
:100EFC00FFF738BB002281F001014068FFF73ABBD5
:100F0C0000224068FFF746BB002211464068FFF7FD
:100F1C0049BB002211464068FFF734BB70B516463A
:100F2C008EB0044608A8FFF771FD1122002103A81A
:100F3C0000F04DFE304600F07BFE00250A4B00957C
:100F4C0081B25B6803AA3046FFF7B8FA20B1294694
:100F5C002046FFF77BFD03E003A92046FFF764FD65
:100F6C0020460EB070BD00BF0C050020024B034A9A
:100F7C001A6000225A60704714050020781E0A0877
:100F8C0010B504460F48FFF749FB28B1A4F10D0337
:100F9C00022B01D8002010BD00F050F8FFF72CFFF9
:100FAC0008B1012CF6D9FFF7A1FEFFF79BFE18B193
:100FBC00A4F11203012BEDD9172C8CBF00200120BA
:100FCC0010BD00BF1C05002070B50C4C0C4E0D4D17
:100FDC0000212046FFF70EFB20460B4C32462946DB
:100FEC0000F04CF801212046FFF704FB324629465D
:100FFC002046BDE8704000F041B800BF1C05002041
:10100C006C000020F1050A082C05002013B5084CD3
:10101C0000231A46194600932046FFF72DFD204663
:10102C00044A054902B0BDE8104000F027B800BFE3
:10103C00400500206C000020D5090A0838B50B4D7E
:10104C00296811F001040FD12846FFF722F858B196
:10105C0021460748FFF79CFE2846FFF71FF8054A74
:10106C000549034800F00AF8014838BD580500202E
:10107C005C0500206C000020450D0A080B4601465B
:10108C00184600F08BBDFFF702B80000184B1A6829
:10109C00D1075CBF01221A60164B1A68D2075CBFDD
:1010AC0001221A60144B1A68D0075CBF01221A6027
:1010BC00124B1A68D1075CBF01221A60104B1A68D8
:1010CC00D2075CBF01221A600E4B1A68D0075CBFB6
:1010DC0001221A600C4B1A68D1075CBF01221A60FE
:1010EC000A4B1A68D2075CBF01221A60704700BF16
:1010FC008C05002088050020840500208005002038
:10110C007C05002078050020740500207005002067
:10111C00244B1A68D0075CBF01221A60224B1A6854
:10112C00D1075CBF01221A60204B1A68D2075CBF42
:10113C0001221A601E4B1A68D0075CBF01221A608C
:10114C001C4B1A68D1075CBF01221A601A4B1A6833
:10115C00D2075CBF01221A60184B1A68D0075CBF1B
:10116C0001221A60164B1A68D1075CBF01221A6063
:10117C00144B1A68D2075CBF01221A60124B1A6812
:10118C00D0075CBF01221A60104B1A68D1075CBFF4
:10119C0001221A600E4B1A68D2075CBF01221A603A
:1011AC00704700BFBC050020B8050020B405002026
:1011BC00B0050020AC050020A8050020A4050020E7
:1011CC00A00500209C050020980500209405002017
:1011DC0090050020244B1A68D0075CBF01221A60CE
:1011EC00224B1A68D1075CBF01221A60204B1A6887
:1011FC00D2075CBF01221A601E4B1A68D0075CBF75
:10120C0001221A601C4B1A68D1075CBF01221A60BC
:10121C001A4B1A68D2075CBF01221A60184B1A6865
:10122C00D0075CBF01221A60164B1A68D1075CBF4D
:10123C0001221A60144B1A68D2075CBF01221A6093
:10124C00124B1A68D0075CBF01221A60104B1A6847
:10125C00D1075CBF01221A600E4B1A68D2075CBF23
:10126C0001221A60704700BFEC050020E805002041
:10127C00E4050020E0050020DC050020D805002056
:10128C00D4050020D0050020CC050020C805002086
:10129C00C4050020C0050020184B1A68D1075CBF9C
:1012AC0001221A60164B1A68D2075CBF01221A6021
:1012BC00144B1A68D0075CBF01221A60124B1A68D3
:1012CC00D1075CBF01221A60104B1A68D2075CBFB1
:1012DC0001221A600E4B1A68D0075CBF01221A60FB
:1012EC000C4B1A68D1075CBF01221A600A4B1A68B2
:1012FC00D2075CBF01221A60704700BF0C060020A9
:10130C00080600200406002000060020FC05002032
:10131C00F8050020F4050020F005002081F00041C4
:10132C0002E000BF83F0004330B54FEA41044FEABE
:10133C00430594EA050F08BF90EA020F1FBF54EA59
:10134C00000C55EA020C7FEA645C7FEA655C00F0F5
:10135C00E2804FEA5454D4EB5555B8BF6D420CDDC6
:10136C002C4480EA020281EA030382EA000083EA49
:10137C00010180EA020281EA0303362D88BF30BDE9
:10138C0011F0004F4FEA01314FF4801C4CEA11313F
:10139C0002D0404261EB410113F0004F4FEA03339E
:1013AC004CEA133302D0524263EB430394EA050F29
:1013BC0000F0A780A4F10104D5F1200E0DDB02FA98
:1013CC000EFC22FA05F2801841F1000103FA0EF22C
:1013DC00801843FA05F359410EE0A5F120050EF1F2
:1013EC00200E012A03FA0EFC28BF4CF0020C43FA23
:1013FC0005F3C01851EBE37101F0004507D54FF030
:10140C00000EDCF1000C7EEB00006EEB0101B1F57F
:10141C00801F1BD3B1F5001F0CD349085FEA3000C5
:10142C004FEA3C0C04F101044FEA445212F5800FD0
:10143C0080F09A80BCF1004F08BF5FEA500C50F16D
:10144C00000041EB045141EA050130BD5FEA4C0C50
:10145C00404141EB010111F4801FA4F10104E9D1D9
:10146C0091F0000F04BF01460020B1FA81F308BFD0
:10147C002033A3F10B03B3F120020CDA0C3208DD9C
:10148C0002F1140CC2F10C0201FA0CF021FA02F177
:10149C000CE002F11402D8BFC2F1200C01FA02F1E7
:1014AC0020FA0CFCDCBF41EA0C019040E41AA2BF0C
:1014BC0001EB0451294330BD6FEA04041F3C1CDAD4
:1014CC000C340EDC04F11404C4F1200220FA04F0F4
:1014DC0001FA02F340EA030021FA04F345EA03019E
:1014EC0030BDC4F10C04C4F1200220FA02F001FA60
:1014FC0004F340EA0300294630BD21FA04F02946E2
:10150C0030BD94F0000F83F4801306BF81F480117A
:10151C000134013D4EE77FEA645C18BF7FEA655CED
:10152C0029D094EA050F08BF90EA020F05D054EABF
:10153C00000C04BF1946104630BD91EA030F1EBFC4
:10154C000021002030BD5FEA545C05D140004941C8
:10155C0028BF41F0004130BD14F580043CBF01F5BB
:10156C00801130BD01F0004545F0FE4141F47001A1
:10157C004FF0000030BD7FEA645C1ABF194610467C
:10158C007FEA655C1CBF0B46024650EA013406BF7D
:10159C0052EA033591EA030F41F4002130BD00BF3C
:1015AC0090F0000F04BF0021704730B54FF48064F9
:1015BC0004F132044FF000054FF0000150E700BF7A
:1015CC0090F0000F04BF0021704730B54FF48064D9
:1015DC0004F1320410F0004548BF40424FF00001C6
:1015EC003EE700BF42004FEAE2014FEA31014FEA09
:1015FC0002701FBF12F07F4393F07F4F81F0605158
:10160C00704792F0000F14BF93F07F4F704730B5C6
:10161C004FF4607401F0004521F0004120E700BF59
:10162C0050EA010208BF704730B54FF000050AE0E0
:10163C0050EA010208BF704730B511F0004502D5E1
:10164C00404261EB41014FF4806404F132045FEAE3
:10165C00915C3FF4DCAE4FF003025FEADC0C18BF88
:10166C0003325FEADC0C18BF033202EBDC02C2F17E
:10167C00200300FA03FC20FA02F001FA03FE40EA10
:10168C000E0021FA02F11444C1E600BF70B54FF010
:10169C00FF0C4CF4E06C1CEA11541DBF1CEA1355F2
:1016AC0094EA0C0F95EA0C0F00F0DEF82C4481EA5A
:1016BC00030621EA4C5123EA4C5350EA013518BF7A
:1016CC0052EA033541F4801143F4801338D0A0FB67
:1016DC0002CE4FF00005E1FB02E506F00042E0FB14
:1016EC0003E54FF00006E1FB03569CF0000F18BF1A
:1016FC004EF0010EA4F1FF04B6F5007F64F54074C2
:10170C0004D25FEA4E0E6D4146EB060642EAC62154
:10171C0041EA55514FEAC52040EA5E504FEACE2EC1
:10172C00B4F1FD0C88BFBCF5E06F1ED8BEF1004FC4
:10173C0008BF5FEA500E50F1000041EB045170BD40
:10174C0006F0004646EA010140EA020081EA030184
:10175C00B4EB5C04C2BFD4EB0C0541EA045170BD80
:10176C0041F480114FF0000E013C00F3AB8014F1FA
:10177C00360FDEBF002001F0004170BDC4F1000443
:10178C00203C35DA0C341BDC04F11404C4F12005C4
:10179C0000FA05F320FA04F001FA05F240EA02001F
:1017AC0001F0004221F0004110EBD37021FA04F655
:1017BC0042EB06015EEA430E08BF20EAD37070BD0F
:1017CC00C4F10C04C4F1200500FA04F320FA05F06E
:1017DC0001FA04F240EA020001F0004110EBD37070
:1017EC0041F100015EEA430E08BF20EAD37070BDE0
:1017FC00C4F1200500FA05F24EEA020E20FA04F3B9
:10180C0001FA05F243EA020321FA04F001F0004167
:10181C0021FA04F220EA020000EBD3705EEA430ED8
:10182C0008BF20EAD37070BD94F0000F0FD101F007
:10183C000046400041EB010111F4801F08BF013C40
:10184C00F7D041EA060195F0000F18BF704703F07E
:10185C000046520043EB030313F4801F08BF013D05
:10186C00F7D043EA0603704794EA0C0F0CEA1355C1
:10187C0018BF95EA0C0F0CD050EA410618BF52EA7B
:10188C004306D1D181EA030101F000414FF0000081
:10189C0070BD50EA410606BF1046194652EA43068F
:1018AC0019D094EA0C0F02D150EA013613D195EA03
:1018BC000C0F05D152EA03361CBF104619460AD14B
:1018CC0081EA030101F0004141F0FE4141F4700155
:1018DC004FF0000070BD41F0FE4141F4780170BD45
:1018EC0070B54FF0FF0C4CF4E06C1CEA11541DBFAA
:1018FC001CEA135594EA0C0F95EA0C0F00F0A7F8AC
:10190C00A4EB050481EA030E52EA03354FEA0131D8
:10191C0000F088804FEA03334FF0805545EA1313EB
:10192C0043EA12634FEA022245EA111545EA1065B3
:10193C004FEA00260EF000419D4208BF964244F14A
:10194C00FD0404F5407402D25B084FEA3202B61A69
:10195C0065EB03055B084FEA32024FF480104FF43D
:10196C00002CB6EB020E75EB030E22BFB61A7546B1
:10197C0040EA0C005B084FEA3202B6EB020E75EB44
:10198C00030E22BFB61A754640EA5C005B084FEAAC
:10199C003202B6EB020E75EB030E22BFB61A754679
:1019AC0040EA9C005B084FEA3202B6EB020E75EB84
:1019BC00030E22BFB61A754640EADC0055EA060E45
:1019CC0018D04FEA051545EA16754FEA06164FEA88
:1019DC00C30343EA52734FEAC2025FEA1C1CC0D134
:1019EC0011F4801F0BD141EA00014FF000004FF0C1
:1019FC00004CB6E711F4801F04BF01430020B4F182
:101A0C00FD0C88BFBCF5E06F3FF6AFAEB5EB030C39
:101A1C0004BFB6EB020C5FEA500C50F1000041EB36
:101A2C00045170BD0EF0004E4EEA113114EB5C0403
:101A3C00C2BFD4EB0C0541EA045170BD41F48011D6
:101A4C004FF0000E013C90E645EA060E8DE60CEADE
:101A5C00135594EA0C0F08BF95EA0C0F3FF43BAFFB
:101A6C0094EA0C0F0AD150EA01347FF434AF95EAB2
:101A7C000C0F7FF425AF104619462CE795EA0C0F96
:101A8C0006D152EA03353FF4FDAE1046194622E763
:101A9C0050EA410618BF52EA43067FF4C5AE50EA3D
:101AAC0041047FF40DAF52EA43057FF4EBAE12E72D
:101ABC004FEA4102B2F1E04324BFB3F5001CDCF164
:101ACC00FE5C0DD901F0004C4FEAC0024CEA50709C
:101ADC00B2F1004F40EB830008BF20F001007047CB
:101AEC0011F0804F21D113F13872BCBF01F00040CE
:101AFC00704741F480114FEA5252C2F11802C2F100
:101B0C00200C10FA0CF320FA02F018BF40F0010080
:101B1C004FEAC1234FEAD32303FA0CFC40EA0C0032
:101B2C0023FA02F34FEA4303CCE77FEA625307D16F
:101B3C0050EA01331EBF4FF0FE4040F440007047A6
:101B4C0001F0004040F0FE4040F40000704700BF40
:101B5C004FEA4002B2F1FE4F0FD34FF09E03B3EBAE
:101B6C0012620DD94FEA002343F0004310F0004FEE
:101B7C0023FA02F018BF404270474FF00000704744
:101B8C0012F1610F01D1420205D110F0004008BFE3
:101B9C006FF0004070474FF00000704710B5054CD7
:101BAC0013462CB10A4601460220AFF3008010BD4B
:101BBC00204610BD0000000010B5431E0A4491429F
:101BCC0004D011F8014B03F8014FF8E710BD0346A0
:101BDC000244934202D003F8011BFAE7704700005D
:101BEC0038B5124B05461C68A36BD3B91820FEF709
:101BFC00E9FC43F20E33A06303804AF6CD334380F5
:101C0C0041F2342383804EF26D63C3804DF6EC6356
:101C1C000381052343810B23838101220023C0E927
:101C2C000423A36B00221D615A6138BD680000209B
:101C3C00034613F8012B002AFBD1181A0138704700
:101C4C001D000A085D000A0889000A088D000A08B0
:101C5C0000000000696E697469616C6973696E6774
:101C6C0000636F7272656374207265616420636FC8
:101C7C00756E74000000000000000000F1050A08F9
:101C8C00F3050A08626175640053657269616C0042
:101C9C0055534253657269616C31007479706500FB
:101CAC00706172616D00636D6400696400686E64DC
:101CBC00007374726D0066696C74006C766C0061F4
:101CCC00646448616E646C65720072656D6F7665F4
:101CDC0048616E646C657200656E756D48616E640A
:101CEC006C657273004A534F4E53747265616D4C40
:101CFC006F6748616E646C657200617070002530AE
:101D0C0031307520005D20002564002C200028292E
:101D1C003A2000205B00636F6465203D200025693C
:101D2C000064657461696C73203D20000D0A0066C7
:101D3C00006C6E00666E00636F64650064657461B0
:101D4C00696C006E6F6E6500747261636500696E1C
:101D5C00666F007761726E006572726F72007061EF
:101D6C006E696300616C6C005A00252B3033643A49
:101D7C00253032750025592D256D2D2564542548A7
:101D8C003A254D3A2553257A0061736374696D6564
:101D9C00000000000000000000000000E5090A0837
:101DAC00D5090A08D7090A08000000000000000045
:101DBC00A10A0A08F10A0A08FF0A0A083D070A08DC
:101DCC00DD0A0A08A30A0A08B90A0A08EB0A0A0873
:101DDC00CF0A0A089D0A0A08000000000000000053
:101DEC00410C0A08910C0A089F0C0A083D070A08C6
:101DFC00550C0A08770C0A08630C0A088B0C0A08A5
:101E0C00430C0A08470C0A08000000000000000000
:101E1C00450D0A088F0D0A08670D0A08470D0A08B8
:101E2C006F0D0A08770D0A087F0D0A08870D0A083E
:101E3C000000000000000000A30E0A08990E0A081A
:101E4C008F0E0A080D0E0A0813080A08830E0A08DA
:101E5C00770E0A086F0E0A08650E0A085B0E0A0850
:101E6C00170E0A080000000000000000C10E0A084E
:101E7C00CB0E0A08D50E0A08DF0E0A08E90E0A086E
:101E8C00F50E0A08010F0A080D0F0A08150F0A08AB
:101E9C001F0F0A08290F0A080000000000000000AC
:101EAC000000000000000000000000000000000026
:101EBC000000000000000000000000000000000016
:101ECC000000000000000000000000000000000006
:101EDC0000000000000000000000000000000000F6
:101EEC0000000000000000000000000000000000E6
:101EFC0000000000000000004300000001020A087E
:101F0C0081020A0825070A0821080A0831080A086C
:101F1C0081080A08AD0E0A08790F0A08D50F0A08BD
:101F2C0019100A0899100A081D110A08E1110A086B
:041F3C00A5120A08D8
:041F4000000000009D
:101F440023000000951D0A0800000000A41E0A08D2
:101F5400C41E0A08E41E0A08000000000000000075
:101F64000000000000000000041F0A080000000038
:101F7400000000000000000000000000000000005D
:101F8400000000000000000000000000000000004D
:101F9400000000000000000000000000000000003D
:0C1FA40000000000000000000800002009
:101FB000FFFFFFFF00000102030405060708090AEE
:101FC0000B0C0D0E0F101112131415161718191AE9
:081FD0001B1C1D1E1F20280030
:041FD80078563412F1
:04000005080A001CC9
:00000001FF
